:020000041000EA
:1000000000B5324B212058609868022188439860DF
:10001000D860186158612E4B002199600221596106
:100020000121F02299502B49196001219960352056
:1000300000F044F80222904214D00621196600F024
:1000400034F8196E01211966002018661A6600F04E
:100050002CF8196E196E196E052000F02FF8012189
:100060000842F9D1002199601B49196000215960AB
:100070001A491B48016001219960EB211966A021F2
:10008000196600F012F800219960164914480160C1
:100090000121996001BC002800D000471248134993
:1000A000086003C880F30888084703B5996A0420EC
:1000B0000142FBD001200142F8D103BD02B5186610
:1000C0001866FFF7F2FF186E186E02BD00000240BE
:1000D000000000180000070000035F00212200005C
:1000E000F4000018222000A00001001008ED00E03C
:1000F00000000000000000000000000074B24E7A12
:1001000000200420F7010010C3010010C5010010F9
:10011000C1010010C1010010C1010010C101001097
:10012000C1010010C1010010C1010010C701001081
:10013000C1010010C1010010C9010010CB01001065
:10014000CD010010CD010010CD010010CD01001037
:10015000CD010010CD010010CD010010CD01001027
:10016000CD010010CD010010CD010010CD01001017
:10017000CD010010CD010010CD010010CD01001007
:10018000CD010010CD010010CD010010CD010010F7
:10019000CD010010CD010010CD010010CD010010E7
:1001A000CD010010CD010010CD010010CD010010D7
:1001B000CD010010CD010010CD010010CD010010C7
:1001C00000BE00BE00BE00BE00BE00BE00F04BF888
:1001D000103800BEF2EB8871649200108C9200100F
:1001E0003402001090A31AE700202149086006C8D5
:1001F00081F3088810471F48006800282FD10DA4FC
:100200000ECC002902D000F012F8F9E71A491B4A77
:10021000002000E001C19142FCD1194988471949E9
:1002200088471949884700BEFDE701C901C29A42C3
:10023000FBD370478C920010C0000020D80900202A
:10024000A49B00100000042000000420A49B0010C8
:1002500000100420001004200000000070470B482C
:1002600003F078FC0047EFF30580C0B27047000050
:1002700008ED00E0000000D0D80900205C17002045
:100280006D20001071090010292000105756000041
:1002900006005250ABB36053D88A0010060052508B
:1002A000861C0302E88A0010060052505422A29DC8
:1002B000FC8A001005005250DE65F468A49B001013
:1002C000F8B5C046044B10B5002B03D003490448D1
:1002D00000E000BF10BDC04600000000EC1400208C
:1002E000887C0010F0B5CE46474680B585B0040046
:1002F00007206844814601700621694488460A70D7
:100300006A46571D53710F21694405230B702368FA
:1003100001252A009A40D0263606B261A068012243
:1003200007F0A2FCA0680122494607F09DFCA068E6
:100330000122414607F098FCA0680122390007F02D
:1003400093FC23689D40756105B0C0BCB946B046BA
:10035000F0BDF0B5C64600B584B0040007236B4479
:10036000984619706B469F1D9A710F2169440223AC
:100370000B70036801252A009A40D0263606B26128
:100380008068012207F070FCA0680122414607F056
:100390006BFCA0680122390007F066FC23689D40D1
:1003A000756104B080BCB846F0BDF0B585B00400FE
:1003B0006B46DF1DD9710F21694403230B70A733EE
:1003C0006A469373036801252A009A40D0263606B0
:1003D000B2618068012207F047FCA0680122390061
:1003E00007F042FCA06801230E226A44002107F0B6
:1003F0000BFC23689D4075616B46987B05B0F0BD92
:1004000070B582B004006B46D91DA0230B70002389
:100410006A469371036801252A009A40D026360661
:10042000B2618068012207F01FFCA06801236A46C0
:100430000632002107F0E8FB23689D4075616B469A
:10044000987902B070BD70B582B004006B46D91DBA
:10045000B0230B7000236A469371036801252A00BC
:100460009A40D0263606B2618068012207F0FCFB74
:10047000A06801236A460632002107F0C5FB236805
:100480009D4075616B46987902B070BD70B582B0C1
:1004900004006B46D91DC0230B70036801252A0098
:1004A0009A40D0263606B2618068012207F0DCFB54
:1004B00023689D4075610A2001F0DCF902B070BD2F
:1004C000F0B5DE4657464E464546E0B583B00400DB
:1004D000150001296BD002296DD0002903D03848BE
:1004E00004F0DAFB02E06B464022DA712A7A002A35
:1004F00001D000236B722B88062169448B46D908F2
:10050000584601705901A878C000082303400B43E6
:10051000DBB26968080C0343052068448246037017
:100520000B0A01A88146037003236B449846197097
:100530009201092169560F230B4013436A46971C09
:100540009370236801229A40D0263606B261A068D3
:1005500001226B46D91D07F087FBA068012259468E
:1005600007F082FBA0680122514607F07DFBA068DE
:100570000122494607F078FBA0680122414607F0B6
:1005800073FBA0680122390007F06EFB29000A31D5
:100590006A7AA06807F068FB236801229A407261BA
:1005A00003B0F0BCBB46B246A946A046F0BD6B46C0
:1005B0004222DA719AE76B464422DA7196E7C04626
:1005C000887C001070B582B004006B460022DA719E
:1005D00001291CD002291ED0002903D0104804F0A4
:1005E0005BFB02E06B468132DA71236801252A0049
:1005F0009A40D0263606B261A06801226B46D91D0A
:1006000007F032FB23689D40756102B070BD6B46F8
:100610008222DA71E9E76B468422DA71E5E7C046A7
:10062000A07C0010F0B5D6464F464646C0B586B011
:1006300004001500002906D0012900D17CE04B48B8
:1006400004F02AFB03E017236B4490221A70002366
:10065000039304936A46D372937209226A449246C2
:10066000137002AA9146137007226A4490461370D1
:100670002368012632009A40D0273F06BA61A0685D
:1006800001221721694407F0EFFAA06801230B2229
:100690006A44002107F0B8FAA06801230A226A44DC
:1006A000002107F0B1FAA06801235246002107F0AB
:1006B000ABFAA06801234A46002107F0A5FAA0681A
:1006C00001234246002107F09FFAA06808232A0070
:1006D0000A32002107F098FA23689E407E616B463B
:1006E000D97AC9009A7A53090B432B80D110012380
:1006F0000B40AB7025D01304C02189020B4051463A
:10070000097809020B43494609780B436B60AB78C3
:10071000002B1CD06B4607331B785B0614D50123D6
:100720002B722B7A002B1AD000236B7206B0E0BC20
:10073000BA46B146A846F0BD17236B4494221A70FE
:1007400085E70023AB70E2E700232B72E9E7D206CE
:1007500002D501232B72E4E700232B72E1E76B46FD
:10076000DA790F2313406B72E0E7C046887C0010F3
:1007700010B5040001F018F9002903DB2060616066
:10078000200010BD024B034A03483F2101F050FCFA
:10079000B87C0010807D0010D47C001070B505007E
:1007A0000C002300E0220F212800FFF79BFD0E2103
:1007B0002800FFF7FAFD1F239843C0B28442F0D10E
:1007C00070BD000070B50400150000260160836054
:1007D000FFF75CFE0A2001F04DF82E4B9D424AD0F7
:1007E00035D82D4B9D4249D02C4B9D4229D1B62561
:1007F000C72228212000FFF7ACFD2A002921200074
:10080000FFF7A7FD00222A212000FFF7A2FD00220A
:100810002B212000FFF79DFD00220C212000FFF777
:1008200098FD00220D212000FFF793FD2A212000D2
:10083000FFF7BBFDB04227D0194804F0FBF90020B8
:1008400070BD184B9D4211D1B625E722D1E7164B5A
:100850009D4216D0154B9D4202D1C0258022C8E78B
:10086000134B9D4202D1AC258122C2E7114804F00E
:1008700013FA0020E4E7B625C322BAE7B625D3224F
:10088000B7E7AC258022B4E760212000FFF786FFA0
:100890000120D5E7A0860100204E000050C30000D3
:1008A000347D00101027000020A1070040420F00F7
:1008B00090D00300147D001070B505000C00FFF708
:1008C0009FFD1021014004220240400603D400296C
:1008D00001D1002A12D0002901D1002A10D0002A0B
:1008E00010D10026F6B2220031002800FFF7E8FD03
:1008F00031002800FFF766FE012070BD0226F1E7F7
:100900000126EFE70020F8E770B505000C00002095
:1009100003E021002800FFF7CFFF0028F9D070BDC9
:1009200070B504000D00FFF78EFD012363604306E0
:1009300003D4000608D4002070BD2A000021200046
:10094000FFF770FE0120F7E72A0001212000FFF7E2
:1009500069FE0120F0E770B505000C00002003E0FF
:1009600021002800FFF7DCFF0028F9D070BD00004F
:10097000F0B5CE46474680B595B004F099F9794B6D
:1009800098467949180007F04DF80121042000F03D
:10099000FDF80121062000F0F9F80121072000F000
:1009A000F5F8052000F00AF9D0231B06994620230C
:1009B0004A4653625361032000F000F908234A4677
:1009C000536253614346694A052111A8FFF7FAFEB5
:1009D000402111A8FFF7E2FE142200210CA804F028
:1009E0000BF8042304AA292152181370604B04AA9F
:1009F00013841422002107A803F0FEFF04A8FFF7C8
:100A0000B7FE049A059B0292039304A8FFF7B0FE79
:100A10000023984699463EE0564B574A57483F2197
:100A200001F006FB534B544A54483F2101F000FBB0
:100A3000504B514A51483F2101F0FAFA00F0B4FFFF
:100A4000002900DA87E0029003914346D800FA219A
:100A5000890003F0D3F80100494B180004F01CF999
:100A60004848494604F018F94748310004F014F9A1
:100A7000002398462A2204AB9C466244118853887E
:100A80001B040B4301331904090C11801B0C538008
:100A900001239C46E04400F087FF0090019100296B
:100AA000BADB0CA911A8FFF72FFF07A911A8FFF7C0
:100AB00052FF00F079FF02000B1EB3DB0098019992
:100AC000121A8B4192197B41DC0F002512196B41E0
:100AD000D90700920193520811430E00019B5F1049
:100AE0002A2304AA9446634419885A8812040A43A4
:100AF0001623634419885B881B040B439A4206D073
:100B00000CAB1B7A002B02D101339C46E1440CABA9
:100B10001A8807AB1B889A4202D001239C46E14405
:100B20000CAB5A7A07AB5B7A9A4202D001239C46FF
:100B3000E14400F039FF02000B1E00DA78E702986A
:100B40000399121A8B41002B00DD77E792D1064BF7
:100B50009A428FD972E7074B074A08483F2101F0B4
:100B600067FAC04600C0034040420F0020A10700C2
:100B70009A020000B87C0010807D0010D47C001028
:100B8000507D0010607D0010707D001010B5830056
:100B9000084A944663441A684024624080341440F2
:100BA0008022520113431C60C000034B9C466044EA
:100BB000416010BD04C001400040014010B5012358
:100BC0008340D0221206936293610521FFF7DEFF76
:100BD00010BD0000EFF3108072B6034B1B68002BB2
:100BE000FBD0BFF35F8F70472C0100D0BFF35F8F46
:100BF000024B00221A6080F3108870472C0100D04D
:100C0000F8B506000C001500FFF7E4FFE308F7183D
:100C1000F15C07222240012393400B4205D1DBB255
:100C20000B433B70FFF7E2FFF8BD2100280001F005
:100C300099FAF0B583B00600019114001F00FFF788
:100C4000C9FF00E00134BC420CD8E308F518F35C9E
:100C50000721214001228A401A42F3D1D2B21A431D
:100C60002A7001E001246442FFF7C0FF002C02DB80
:100C7000200003B0F0BD019B002BF9D0089801F0D3
:100C800071FA0000034B1B6802201840431E984174
:100C9000C0B2704700C00640002307E0054A9A181A
:100CA0009200BFF35F8F0021116001331F2BF5D934
:100CB0007047C04640000034054A1078431CDBB240
:100CC0001370172B02D9130010221A707047C046F8
:100CD0009804002010B582B00100054C054B00932C
:100CE0001F2318222000FFF7A4FF02B010BDC0464A
:100CF00048100020987D001070B504000D000620FB
:100D000001F04AFBC000290002F078FFC60908D0B4
:100D10000E4B9E4217D87F230340013335005E08F7
:100D200000E001256562A6622C3480239B012343E9
:100D300000221A60062001F02FFB8000A90189190A
:100D400002F05CFF70BD0026014DEBE7FEFF0000E6
:100D5000FFFF0000002909D00A22064B9C46604490
:100D600043425841044B4000C25270478022520017
:100D7000F3E7C0460080FCBF3C17002070B50500BB
:100D80000C00062001F008FB002829D0164B9D42DC
:100D900027D08022D203154B1A60154B1A60154BD1
:100DA0009B6811009943FAD100212800FFF7D2FF78
:100DB00021002800FFF7A0FF29002C31EB6A6022F8
:100DC00053400E321A4080235B010B431A600A4BDA
:100DD0002B6380239B010B4310221A600323AB6417
:100DE00070BD80221204D6E70080034000E000407E
:100DF00000F0004000C000400103000070B5050095
:100E00000C00080000F0C4FD200000F0A9FE084915
:100E1000200000F0E9FDFFF74FFF064B9C466044C1
:100E2000800068602C75044BA400E55070BDC0467E
:100E30003111001040000034041500200A4B1A68DC
:100E4000EFF3108172B61368002BFCD0BFF35F8FF5
:100E5000054B1B68BFF35F8F00221A6081F3108877
:100E600040BF0020002170472017002010B5002946
:100E700020D003681B7B99421CD88368154CA4467C
:100E8000614409015B181C685968002A18D003687E
:100E90001B7B9A4214D883680E4884466244120130
:100EA0009B181A685B6801208B4201D80ED0002085
:100EB000C0B210BD084B094A09483B2101F0B8F8FF
:100EC000054B064A06483B2101F0B2F8A242EFD892
:100ED000EDE7C046FFFFFF0FF87D001050800010C7
:100EE000C87D001010B500291DD0037B99421AD887
:100EF00004684B005B18033BE418002919D0002A52
:100F00001DD0914221D0002A25D0037B9A4222D8BD
:100F1000006853009B18033BC3189970217800297F
:100F20001FD1227010BD104B104A1148692101F0E9
:100F30007FF8104B104A0E48703101F079F80F4BD2
:100F40000D4A0B48712101F073F80D4B0A4A08480D
:100F5000722101F06DF8044B044A0548692101F043
:100F600067F859702270DDE72C7E0010BC800010FD
:100F7000487E00108C7E001098800010987E001033
:100F8000A47E001070B506000D001400002914D0D6
:100F9000002A14D0436880689847002806D02200B1
:100FA00029003000FFF79EFF280007E02A002100FB
:100FB0003000FFF797FF200000E0100070BD080030
:100FC000FCE70000F0B583B00500009201930AAB86
:100FD0001C780BAB1F78002C26D003685A7B9442F8
:100FE00007D10123002B19D1002C3AD1200003B0E6
:100FF000F0BD002C0CD01A7B944209D81A6863000B
:101000001B19033BD3189B78002BEBD00123E9E796
:101010003C4B3D4A3D48692101F00AF83C4B3D4AB2
:101020003D48652101F004F803689C7B002CDBD06F
:1010300011D01A7B94420ED81A686100091903393D
:10104000521851789973002900D1D97300239370F5
:1010500053701370C8E72B4B2B4A2C48692100F0C2
:10106000E7FF002C37D02B681B7B9C4233D8AB6842
:101070002A4AA21812019B18009A1A60019A5A6013
:10108000089A9A60099ADA602E68002C29D02ED02E
:10109000337B9C422BD8336862001219033A9B18A9
:1010A00000229A705A701A70717B22003000FFF78C
:1010B00069FF7073844299D1287D009A019B00F0EA
:1010C000DBFC061E01D0002F17D00C9B002B00D19B
:1010D0008CE71E708AE7124B124A0F483B2100F042
:1010E000A7FF114B114A0948A62100F0A1FF054BAB
:1010F000054A0648692100F09BFF2868210000F09E
:1011000015FFE2E72C7E0010BC800010487E001026
:10111000BC7E0010C8800010C87D0010FFFFFF0FCC
:10112000F87D001050800010C47D0010AC800010CD
:10113000F0B5DE4657464E464546E0B58BB00990C1
:1011400000230893B24B8200D55833E0B14BB24A2A
:10115000B2483F2100F06CFFB14BB24AB2483B218C
:1011600000F066FFB14BB24AAF488C2100F060FF3F
:10117000B04BAF4AAC48902100F05AFFA84BAE4AA2
:10118000A948402100F054FF43461A685B6809985B
:1011900000F072FC00239B469A466B68BFF35F8F9A
:1011A00000221A6089F310885346002B53D100287F
:1011B00000D126E100F0F8FB02000B1EC6DB002088
:1011C0000021069007916868EFF3108972B60168F4
:1011D0000029FCD0BFF35F8F2868447B002C35D0FA
:1011E000BAD0017B8C42B7D8AE6894496118090126
:1011F000B046884441460E684F68B61A9F41002F9A
:10120000C2DC01D1002EBFD1002100F085FEA0423A
:10121000A8D143461A685B680692079343469B68C9
:101220009A464346DB689B465346002BA0D0002CD1
:10123000A4D02B681B7B9C42A0D8EA68631ED35CB9
:1012400008931B02184328610020A6E700239B4651
:101250009A460020A1E7089B1B0223439846594663
:101260001800D04706000F006A68EFF3108972B6C5
:10127000136859424B41D9B2002BF9D1BFF35F8FAC
:10128000002F26DB002F52DD2B69002B53D0434566
:1012900072D100F089FB02000B1E73DB0100180005
:1012A00092197B41984202D804D1914202D901227D
:1012B0005242D317002B6BDB0021049101310391C3
:1012C000029459460191514600912800FFF77AFE99
:1012D00049E02B69002BD5D043451CD1069A079BCA
:1012E00010001900921BBB41994202D804D19042D0
:1012F00002D901225242D317002B12DB00210491A4
:101300000131039102945946019151460091280000
:10131000FFF758FE27E04A4B454A43489F2100F01B
:1013200087FE3C4B3C4A3D483F2100F081FE002FA8
:1013300001D1002EA8D12A68002C44D0537B9C42B6
:101340002CD1012100293ED1D37B002B41D1D47374
:10135000002C50D02B681B7B9C424CD8EA68013C87
:10136000135D0133135500232B616A68BFF35F8F50
:10137000136089F310881DE7314B2D4A2A48A221BA
:1013800000F056FE234B244A24483F2100F050FE33
:10139000204B214A21483F2100F04AFE002C0CD06E
:1013A000137B9C4209D8106863001B19033BC318C8
:1013B0009B78002BC6D00121C4E7224B224A234848
:1013C000692100F035FE224B224A2048F72100F027
:1013D0002FFE002B09D0117B8B4206D810685900D4
:1013E000CB18033BC3185C70B1E7164B164A17487D
:1013F000692100F01DFE0A4B0F4A0B48402100F006
:1014000017FE0BB0F0BCBB46B246A946A046F0BDE5
:1014100004150020B87C00101C800010D47C001043
:10142000F87D001050800010C87D0010E47E001090
:1014300034800010FC7E001074800010FFFFFF0F4E
:10144000087F00102C7E0010BC800010487E001029
:10145000447F00108880001010B50A4B5B68002B99
:1014600004D009480A2100F09BFB10BD054C074A37
:1014700020682300102100F073FC03212000FFF7F7
:10148000BDFCEEE79C040020201700206D0E00102C
:1014900010B5064B5B68002B01D0044810BD044B0F
:1014A000044A05485C2100F0C3FDC0469C040020AE
:1014B000687F00105C800010C87D0010F0B5DE462B
:1014C00057464E464546E0B58BB0804616001F0095
:1014D000149B9A46159B994616AB1B789B461F2377
:1014E00002AA9446634400221A7036E0002809D00C
:1014F00042461268127B904204D84246D168421E8E
:101500008A5C4CE0454B464A4648402100F090FD3D
:101510000798002B79D05B46002B76D04946D04700
:1015200004000D0003000B4300D175E000294ADBE5
:1015300000F03AFA02000B1E59DB010018001219E4
:101540006B41984202D804D1914202D90122524201
:10155000D317002B51DB16001F0043465A68EFF3E8
:10156000108472B6136859424B41D9B20791002BCF
:10157000F8D1BFF35F8F1F3302AA944663440493EC
:101580000023039302934B4601935346009332008A
:101590003B004046FFF716FD031EA7D1020041465F
:1015A0004968BFF35F8F00250D6084F31088002B1E
:1015B00029D01F2302A98C4663441B78002BA7D196
:1015C00012021043A5E730003900361BAF41B94283
:1015D00002D804D1B04202D901267642F717002F73
:1015E000BBDA114B114A12483F2100F021FD0E4B8E
:1015F0000E4A0F483F2100F01BFD0B4B0B4A0C48D5
:101600003F2100F015FD012040420BB0F0BCBB466D
:10161000B246A946A046F0BD0798F6E7F87D00104F
:1016200074800010C87D0010B87C00101C80001071
:10163000D47C0010F8B504004268EFF3108572B650
:10164000136858424341D8B2002BF9D1BFF35F8FE2
:10165000CBB22268567BB3421BD10120002847D071
:10166000206988422AD0090AC9B2002B2DD02068EF
:10167000007B834229D8E668581E305C88422AD015
:1016800000206368BFF35F8F00221A6085F3108823
:10169000F8BD002B0CD0167BB34209D817685E004A
:1016A000F618033EBE19B678002ED7D00120D5E734
:1016B000124B134A1348692100F0BAFC124B134A2B
:1016C00085211348490000F0B3FC124B124A104820
:1016D000402100F0ADFC1900100000F027FC0028AC
:1016E000CFD10E4B094A12210948FF3100F0A0FC6E
:1016F00023698B42C5D100232361C2E72C7E0010F1
:10170000BC800010487E00108C7F00100480001008
:10171000C87D0010F87D001074800010B07F0010AC
:10172000F0B587B006000F00FEF79DFD00281FD121
:1017300006246442E517A4197D41BD4202D803D1B5
:10174000B44201D900240025002D14DB0494059532
:1017500000F02AF902000B1E13DBA41A9D41002D94
:1017600017DC14D03000390000F02AF907B0F0BDC2
:10177000234800F0F7FC234B234A24483F2100F084
:1017800057FC204B204A21483F2100F051FC002CFF
:10179000E8D0FFF77DFE0023029301931C4B0093DA
:1017A000049A059BFFF78AFE002818DADAE700237F
:1017B00000E00023002BD5D1164B1A68EFF31081FF
:1017C00072B61368002BFCD0BFF35F8F114B1B6800
:1017D000BFF35F8F00221A6081F3108820BF049945
:1017E000059A0D4B5B6A9A42E3D80B48806A88429F
:1017F00003D29A42DBD00123DCE70123DAE7C046BB
:10180000B47F0010B87C00101C800010D47C001045
:101810003D0E00102017002000400540F8B50400E0
:101820000D0000F0C1F802000B1E10DB20002900A3
:10183000801859418B4202D804D1824202D901203A
:101840004042C117002908DBFFF76AFFF8BD064BCD
:10185000064A07483F2100F0EBFB034B034A0448CC
:101860003F2100F0E5FBC046B87C00101C80001052
:10187000D47C001010B5FA2292000023002103F05E
:1018800001F8FFF7CBFF10BD70B584B006000C0067
:10189000FFF7FEFD002302930193194B00933200E2
:1018A0002300FFF70BFE051E11DD20BFFFF7F0FD43
:1018B0002900FFF7BFFE134B5B6A9C421BD8114AFD
:1018C000926AB2421AD29C4213D0012014E00D4B0E
:1018D0005B6A9C4209D80B4A926AB24207D29C4288
:1018E00001D0012008E0002006E0002004E00120F3
:1018F00002E0002000E0002004B070BD0120FBE702
:101900003D0E00100040054070B5EFF305833F2009
:1019100018401038EFF3108C72B6184B1B68002B70
:10192000FBD0BFF35F8F012319008140144A51633C
:10193000144A12781400C440234213D0104B5C6A3E
:10194000114B8500EB589C4205D3104BEB580D4CC6
:101950008A43227007E00A4A031D9B009958995058
:10196000002300E00023BFF35F8F044A00211160D1
:101970008CF31088002B00D0984770BD280100D050
:10198000004005405B1700202C170020380F002076
:1019900010B50100024A034B1800FFF731F910BDE2
:1019A000E080001058170020044B5B6A034A906ADD
:1019B0001900536A9942F9D17047C046004005406A
:1019C000084B5B6A01E0074B5B6A8B42FBD301E08B
:1019D000044B5B6A8B4203D1024B9B6A8342F7D371
:1019E0007047C0460040054070B504000E00EFF39C
:1019F000108572B61B4B1B68002BFBD0BFF35F8FAB
:101A0000002E1CD0200000F047FD174B83420BD066
:101A10001900200000F048FD0121200000F02CFDFD
:101A20000123A340114A1360114BA400E650BFF3F9
:101A30005F8F0C4B00221A6085F3108870BD0C4B31
:101A4000A2000021D1500122A2400A490B78934301
:101A50000B700549200000F051FD0021200000F02E
:101A60000BFDE4E7280100D009190010386005409B
:101A7000380F00205B170020F0B5DE4600B584B0BB
:101A80000400150001921E000293FFF78DFF0395DD
:101A90008E4202D84ED185424CD9EFF3108B72B6EC
:101AA000274B1B68002BFBD0BFF35F8F254A1778AD
:101AB0000125A540EBB23B431370234B5D63221D10
:101AC00092000199D150214AA100029888501B6AC6
:101AD0002B4212D11C4B1B6C2B4208D00020BFF3B1
:101AE0005F8F174B00221A608BF3108823E0184B8E
:101AF000184A1948C12100F09BFAFFF755FF8E42A2
:101B000014D802D1039B834210D80E4B1B78BB42E2
:101B10000ED00D4B1D625D631F22224001239340B6
:101B20000E4A1360074B1F700120D8E70020D6E74C
:101B30000120D4E7012004B080BCBB46F0BDC04604
:101B4000280100D05B170020004005402C17002022
:101B500004810010648100102881001080E200E000
:101B6000EFF3108C72B60B4B1B68002BFBD0BFF34E
:101B70005F8F01238340084A136208490A789A4319
:101B80000A70BFF35F8F034B00221A608CF310883A
:101B90007047C046280100D0004005405B17002078
:101BA000024B9C466144890001607047400000344C
:101BB00010B50400FFF780F801002000FFF7F0FFE8
:101BC000FF232371BFF35F8F10BD10B50400FFF733
:101BD00073F801002000FFF7E3FFFF2323710023C8
:101BE0006371BFF35F8F10BD034B9C466144890056
:101BF0000160BFF35F8F70474000003410B50400F0
:101C00000120FFF767F801002000FFF7EDFF10BD8E
:101C100010B500291DD0037B99421AD804684B00E7
:101C20005B18033BE418002919D0002A1DD091420B
:101C300021D0002A25D0037B9A4222D80068530085
:101C40009B18033BC3189970217800291FD122707B
:101C500010BD104B104A1148692100F0E9F9104BF2
:101C6000104A0E48703100F0E3F90F4B0D4A0B4853
:101C7000712100F0DDF90D4B0A4A0848722100F08D
:101C8000D7F9044B044A0548692100F0D1F959708D
:101C90002270DDE72C7E001034830010487E001097
:101CA0008C7E001020830010987E0010A47E00100F
:101CB00070B506000D001400002914D0002A14D0BD
:101CC000436880689847002806D022002900300029
:101CD000FFF79EFF280007E02A0021003000FFF7F1
:101CE00097FF200000E0100070BD0800FCE7000036
:101CF00010B50023437301338373037BC373012344
:101D0000027B9A4213D9002B0BD0027B934208D856
:101D100001685A00D218033A8A180133DBB25370B3
:101D2000EEE70C4B0C4A0D48692100F081F9002ABE
:101D300009D0924207D8016853009B18033BCB1887
:101D400000225A7010BD034B034A0448692100F079
:101D50006FF9C0462C7E001034830010487E0010BE
:101D600010B5017342608360FFF7C2FF10BD000031
:101D700070B50400081E00D170BD002931D0237B4E
:101D800099422ED822684B005B18033BD3185A782F
:101D9000002AF1D02BD0237B9A4228D82168530007
:101DA0009B18033BCB185D7800215970002824D084
:101DB000237B984221D8216843001B18033BCB1892
:101DC0000021597001002000FFF772FF0600290072
:101DD0002000FFF7CDFF020031002000FFF768FF71
:101DE000CAE7094B094A0A48692100F021F9064B64
:101DF000064A0748692100F01BF9034B034A0448CF
:101E0000692100F015F9C0462C7E001034830010C3
:101E1000487E001070B505000C001600002927D080
:101E20002CD0037B994229D803684900091903394A
:101E30005B185A78002A27D19A78002A2AD1197873
:101E4000FFF796FF0300002E03D0EA7B002A27D17C
:101E5000EC73002B36D1002C47D02B7B9C4244D80E
:101E60002A6863001B19033BD31800225A7070BD07
:101E7000214B224A2248382100F0DAF8214B224A2D
:101E80002248692100F0D4F8214B1C4A1C483A2111
:101E900000F0CEF81F4B194A19483B2100F0C8F852
:101EA000002A09D0297B8A4206D82E6851008A1858
:101EB000033AB2185470CBE7124B134A1348692106
:101EC00000F0B6F8002B0AD02A7B934207D82A6884
:101ED00043001B18033BD31800229A70BBE7094B41
:101EE000094A0A48692100F0A3F8064B064A074848
:101EF000692100F09DF8C046448200100C83001058
:101F00004C8200102C7E001034830010487E00109C
:101F100080820010A882001070B504000A00457B82
:101F20002900FFF777FF6073280070BD70B50400CB
:101F3000002966D0437B8B420ED0002911D0037B51
:101F400099420ED805684B005B18033BED18AB783F
:101F5000002B0CD1002055E00121FFF7DDFF01200F
:101F600050E0294B294A2A48692100F061F8002BEA
:101F70001FD0027B93421CD800685A00D318033B41
:101F8000C218C35C8B421AD0002B1BD0227B934219
:101F900018D820685A00D318033BC01843788B42E6
:101FA00016D0002BF0D11B4B1B4A1C48672100F0B8
:101FB0003FF8154B154A1648692100F039F86B783F
:101FC000137007E0104B114A1148692100F030F8F6
:101FD0006B7843700023AB706B7001222000FFF719
:101FE00019FF0200617B814205D02000FFF760FEEF
:101FF0006073012006E00A4B074A08486D2100F093
:1020000017F8002070BDC0462C7E001034830010ED
:10201000487E0010CC820010F48200104C82001028
:10202000D482001000BEFDE710B5FFF7FBFF0000F3
:1020300030B583B00D001900002A0DD0084B002ADE
:102040000CD0084C019200932B000200200002F0FB
:1020500023FE0120FFF7E6FF034BF0E7024AF0E71B
:1020600040830010508300107C7D001070B52B4B16
:102070002B4A1A602B4B2C4A1A602C4B9A682A4B1D
:102080009343FAD12A4C01E008CC9847294B9C4253
:10209000FAD300F001F9234B274A1A60234B9B68BF
:1020A000DB43DB01FAD1254B40229A675A671A6756
:1020B000DA66234C09E0234B234A24488321FFF7A7
:1020C000B7FF2000FFF774FD0834214B9C4209D272
:1020D0002368002BF5D0012BEDD12000FFF775FD13
:1020E0000834F2E71B4DA9681B4CC022200002F007
:1020F00089FCAC60FEF7B7F8002800D000BEFEF700
:10210000CBFD00F049FBFFF7A7F9144C01E008CC28
:102110009847134B9C42FAD370BDC04600E0004084
:10212000BFCDFBFE00F00040FE7F3C0000C0004041
:10213000BC090020CC090020FFFFFF0100F0014096
:10214000B409002080830010F0830010A0830010E9
:10215000BC09002000ED00E000000020CC090020B8
:10216000D80900200FB400B583B0084802F062FD22
:10217000049B002B07D005A90191180002F06AFD0D
:10218000034802F057FD0120FFF74CFFDC830010ED
:10219000EC830010F8B5DE4657464E464546E0B59E
:1021A00006000F0015000A9A93424ED31A0E92466B
:1021B0001B0298460A9A00234046514601F060FDF2
:1021C00081467400A419A4002E4B9C4664446368A5
:1021D000834200D26060331FDBB29B46012B3AD9A9
:1021E000C0239B012343802212011A60264BB200B8
:1021F000D158002905D0586901F000FD013001389F
:10220000FDD16D0123685D40E0222A4080235B01FF
:1022100023431A605A46012A28D980239B0123436D
:10222000802212011A604B4663604A4600234046F2
:10223000514601F025FD144BB60098510120F0BC29
:10224000BB46B246A946A046F8BD104B104A1148FD
:102250002D21FFF7EDFE012FC2D1C0239B012343A7
:1022600003221A60A368DB07FCD5CAE7216879401E
:1022700003220A401A60A3680125BD401D42FAD01E
:10228000CBE7C046008000404C10002000840010C6
:10229000508400101484001030B583B00C2000F07E
:1022A00015FBFEF7EFFC00280DD0002304E02E4ABA
:1022B00099002E4888500133092BF8D92A4B2C4A13
:1022C0005A6203B030BD2B4B00229A6700F070FBBE
:1022D000294B01221A60274B5B6C012BFBD1274B4A
:1022E00003221A60234B9B6B012BFBD10224009429
:1022F0000533234A0121234800F05CFA00940523AA
:10230000214A0121214800F055FA214B0093002277
:1023100002210420FFF73EFF1E4D00952B000022F6
:1023200001210520FFF736FF104C00942300002206
:1023300000210720FFF72EFF009423000022002138
:102340000820FFF727FF0A4B0093230000220021FB
:102350000920FFF71FFF00952B0000220021062017
:10236000FFF718FFADE7C0464C100020006CDC0200
:102370001BB70000008000403CB0004030B000407F
:10238000002F68590080024000389C1C00C00240A9
:10239000001BB70040597307014B8000C0587047BD
:1023A0004C100020074B9B68103080001950BFF381
:1023B0005F8FBFF35F8F044B0021196082F3108899
:1023C0007047C04600ED00E0240100D010B5091AA6
:1023D00004394B08090B05D15B055B0D0448184314
:1023E00080B210BD034B044A04488B21FFF720FE46
:1023F00000E0FFFF6084001064860010708400100D
:1024000010B5091A04394A08090B08D14905490DC4
:10241000064B0B430380064B1343438010BD054B13
:10242000054A06489321FFF703FEC04600F0FFFF70
:1024300000F8FFFF608400103886001070840010E0
:1024400001238340034A10681840431E9841C0B2DC
:102450007047C04600E100E0002904D0034B18603B
:10246000034B18607047034B1860FBE780E200E005
:1024700000E100E080E100E010B501238340180096
:10248000FFF7EAFF10BD000001238340014A1360FB
:102490007047C04600E200E0024B9B6810308000AD
:1024A000C058704700ED00E070B504000D00EFF378
:1024B000108672B60C4B1B68002BFBD0BFF35F8FEE
:1024C0002000FFF7E9FF094B984201D0A84205D14F
:1024D000320029002000FFF765FF70BD044B054A5C
:1024E00005486E21FFF7A4FD240100D0CD010010A6
:1024F000A88400108086001070840010F0B5CE46CD
:10250000474680B583B006000D00EFF3108872B621
:10251000574B1B68002BFBD0BFF35F8F554B9A685E
:1025200034001034A300D758534B9F4207D0AF421A
:1025300000D19BE00197514BFB1A2F2B09D9424642
:1025400039003000FFF72EFF03B0C0BCB946B046DB
:10255000F0BD3000FFF774FF814600213000FFF727
:102560008BFFBFF35F8FFDF77EFE002801D0844212
:102570001AD10123019C9C43404A414B2100891AF6
:1025800049414B431B0D5BB29C460021A368AB4203
:1025900012D00622A256002A0DDB53009B189B0086
:1025A000364A2100D418F1E7364B374A1E21374806
:1025B000FF31FFF73DFD2100AB4250D106256557A5
:1025C000002D37DB2D4B6A00521992009B189A6838
:1025D000A260DA79E2719B795BB2A371002B10DA09
:1025E000BD200002A080254B6A00521992009B1862
:1025F000274A11789971157049463000FFF73CFF62
:102600009DE7201D6B005B199B001C4A9B18191D40
:102610009B88DA0A1C2A07D15B055B1502335B0035
:10262000C918FFF7D3FEDDE71A4B1B4A174899215B
:10263000FFF7FEFC00280DD1002909D0FF238B7184
:10264000164B8B80124B1A78A27162461A70D3E730
:10265000094FF7E71249201DFFF7D2FECCE7114BD7
:10266000094AA92109484900FFF7E2FC024F66E741
:10267000240100D000ED00E0CD010010C4040020D2
:10268000AAAA0000BC8500105086001070840010BB
:1026900059170020A48500107086001000BDFFFFB0
:1026A000FE040020E085001070B5040001260643FA
:1026B0002D4BF31A2F2B28D8FDF7D5FD00282BD052
:1026C000EFF3108C72B6294B1B68002BFBD0BFF3C5
:1026D0005F8F254A264D2100891A49414D432D0D12
:1026E0006DB2244B9B6880001B58B3421BD0002165
:1026F000032932D81C4B4A00521892009B189B7930
:102700005BB2AB421FD00131F2E71B4B1B4A782171
:102710001B48FF31FFF78CFC1A4B184ABD211848A3
:102720004900FFF785FC134B9B68174A1A50174B5B
:102730001A78A2711D70BFF35F8F0C4B00221A60D4
:102740008CF3108870BD084B4A0050188000181890
:10275000FF2686710E4A8280E9E70E4B074A8C21DC
:102760000748FF31FFF764FCC4040020240100D0B7
:10277000AAAA000000ED00E0E88500101C86001009
:102780007084001010860010CD0100105917002031
:1027900000BDFFFFCC8200100022044B02E0044980
:1027A00002C30132072AFAD97047C04600E400E0AC
:1027B00080808080F0B5CE4600B504000E009146C2
:1027C0001F000C2001F01AFA050043011B1A9901A1
:1027D000C91AC90009188901484601F00FFA020018
:1027E000103A98235B009A4233D87B1E062B36D8CA
:1027F000069B013B062B32D8069B9F4235D34B46A6
:102800001B09AB4237D33F04069B1D032F432368AC
:10281000002B36DB234B9C4241D080235B01224AB4
:102820001360224A1360224A926819009143FAD138
:102830002660A060221DC0239B01134321221A6041
:102840002268002AFCDAE76008221A6080BCB946D8
:10285000F0BD184B184A19481621FFF7E9FB184B31
:10286000154A16481921FFF7E3FB164B124A134885
:102870001F21FFF7DDFB144B0F4A10482221FFF701
:10288000D7FB22683F231340B342C3D1A3681B0583
:102890001B0D8342BED1E368002FBBD1D6E7802356
:1028A0009B01BCE700C0024000E0004000F0004097
:1028B00000C000409C86001070870010B886001091
:1028C000F08600103C8700105487001080239B0086
:1028D0000343014AD362704700800540024B1A68E7
:1028E000024B5A607047C046E41400200080054047
:1028F00010B50200164B8020C0051860154B164815
:10290000186000290AD0154BE021C9041960002A7B
:1029100009D1124B802212061A6010BD0C4BE02127
:10292000C9041960F3E753019B1A9800801800014D
:102930000B4B186080235B04984202D3084B094A72
:102940001A60FFF7CBFF054B8022D2051A60E4E73F
:1029500000B0054008200140FCFF010000A0054038
:10296000E4140020FFFFFF0010B5030010000C4A24
:102970008024E4051460002B0DD001221343094A82
:10298000094CD461094C5C4014625162936200218D
:10299000FFF7AEFF10BD034B0022DA61F7E7C04638
:1029A00000B0054000800540D3C007B02D3FF84F70
:1029B000064BAA2212011A602F22DA60044B054A44
:1029C0001A60024B5B68002BFBDA70470040024044
:1029D0000060024000B0FA00704710B5002802D035
:1029E0000B684968984710BD0100002007E083008C
:1029F0001B185B00501C08601078C01830380A683B
:102A00001378303BDBB2092BF1D97047F0B5DE46C5
:102A100057464E464546E0B583B093461F000C9B93
:102A20009A460D9C0E9B99460F9B9B0703D0B84678
:102A30000F00060022E00192A34688464E46B946A2
:102A40000700B44207D2551C4B4641462020B847E8
:102A500001342A00F5E73D004F465C46019B9B464A
:102A6000B1464646B84637002E0007E0013C551CEB
:102A70005346185D43463900B0472A00002CF5D173
:102A800035003E0047460F9B9B0707D4100003B05C
:102A9000F0BCBB46B246A946A046F0BDB0464E4685
:102AA000B9462F005D46531BB342EFD2541C4B4630
:102AB00041462020B8472200F5E7F0B5CE4647460C
:102AC00080B585B0944698460C9D0D9C0EAB1B7846
:102AD0009946109A119B129EB7071CD4002B0CD05C
:102AE000F7070AD54F46002F02D10C37374204D0E2
:102AF000013B02E030272F550134944201D21F2CB4
:102B0000F8D9F70707D59C4205D21F2C03D83027E8
:102B10002F550134F5E7F70615D5770505D4002CB8
:102B200003D0944224D09C4222D00F9A102A2BD05A
:102B30000F9A102A30D00F9A022A35D01F2C02D8B3
:102B400030222A5501341F2C05D84A46002A31D09C
:102B50002D222A5501340396029301940095434691
:102B60006246FFF753FF05B0C0BCB946B046F0BDA2
:102B7000621E012C06D00F9F102F01D01400D4E745
:102B8000023CD2E71400D0E7B206D1D41F2CCFD834
:102B900078222A550134D1E7B206CCD51F2CCAD8E9
:102BA00058222A550134C9E71F2CC7D860322A554C
:102BB0000134C3E7720703D52B222A550134CAE733
:102BC0003207C8D520222A550134C4E7F0B5DE46C5
:102BD00057464E464546E0B593B081468A46089230
:102BE00009931CAB10CB1B789B461E9D219B9846DE
:102BF000002C03D1102342469A4390468023DB00E9
:102C000046461E4042461A4212D0002C22D00026D0
:102C10000EE03031CBB2771C0AAA93552900200070
:102C200000F0ECFFAC4216D31F2F14D83E00040076
:102C30002900200000F0E2FFC9B20929E9D9434682
:102C40009B0605D541235B18DBB20A3BDBB2E2E70A
:102C50006123F8E7270043460693209B05931F9BBB
:102C6000049303955B46029301970AAB0093099B7B
:102C7000089A51464846FFF720FF13B0F0BCBB4608
:102C8000B246A946A046F0BDF0B5DE4657464E46D0
:102C90004546E0B595B0089009910A920B931E9EA7
:102CA0001F9C20AB1B789B46229B9946239D269B0D
:102CB0009A463300234303D1103352469A43924637
:102CC0008023DB0057461F4052461A4219D033007A
:102CD00023432DD0002714E03032D3B27A1C904623
:102CE0000CAAD3554A462B003000210000F0C8FF43
:102CF000A5421FD819D043461F2B1BD847460600B4
:102D00000C004A462B003000210000F0B9FFD2B27F
:102D1000092AE1D953469B0605D541239B18DBB20E
:102D20000A3BDBB2DAE76123F8E7B145E3D901E01A
:102D30000023984653460693259B0593249B0493B2
:102D40004B4603935B460293434601930CAB0093BF
:102D50000B9B0A9A09990898FFF7AFFE15B0F0BCD3
:102D6000BB46B246A946A046F0BD0000F0B5DE461F
:102D700057464E464546E0B591B083468A460C928A
:102D800098461A9C08941B9D099522002B00200050
:102D9000290001F004FA002800D0E5E001225242A7
:102DA000D74B2000290001F0F5F9002800D0DBE026
:102DB00001225242D34B2000290001F0D5F900280E
:102DC00000D0D1E000220023089E3000099D290098
:102DD00001F0CAF9002800D0DDE0089A099B0692AC
:102DE00007938023DB001E9A1A400D921E9A1A4206
:102DF00001D106231C930698079904000D000A00D0
:102E00000600024300D1D1E0080D4005400DBE4C44
:102E1000A44660440A03120BBC4B13431F0001F08D
:102E2000D1F9BB4ABB4B01F05CF9BB4ABB4B01F08B
:102E300031F904000D000022B94B3000390001F0D7
:102E400020F9B84AB84B01F04CF902000B00200001
:102E5000290001F01FF901F0CDF9814601F0B2F926
:102E600004000D00B14AB24B01F03BF90022B14B16
:102E700001F010F901F0BEF90600AF4AAF4B200097
:102E8000290001F02EF904000D00300001F09AF93C
:102E9000AB4AAC4B01F025F902000B0020002900E1
:102EA00001F0EFF804000D0002000B0001F019F929
:102EB0000A900B91A44BF31800261F0522002B004B
:102EC0002000290001F0E6F80E900F9122002B005F
:102ED00000208021C90501F0D4F804000D00002273
:102EE0009A4B0A980B9901F0DEF80022984B01F0FA
:102EF000D1F802000B000A980B9901F0D4F80022D7
:102F0000944B01F0C7F802000B000A980B9901F0EE
:102F1000CAF802000B002000290001F0BBF80200F3
:102F20000B000E980F9901F0BEF80022774B01F0CC
:102F3000B1F832003B0001F0D4F806000F000400A5
:102F40000D00069A079B01F025F9002830D00123D7
:102F50005B429C46E14400227D4B3000390001F089
:102F6000A2F804000D0023E01E9B04931D9B039315
:102F70001C9B0293089A099B0092019343460C9A6A
:102F80005146584600F0FCF811B0F0BCBB46B246C2
:102F9000A946A046F0BD0023002406930794069698
:102FA00080231B069C46654407951AE70023994633
:102FB0004B466333C62B1ED804261E9B1B0526D505
:102FC0002B0023430FD0644A644B0698079901F005
:102FD000D9F8002879D00022614B0698079901F0B2
:102FE000C3F8002871D01C9B4B4506DD4A469B1A4E
:102FF000013B1C9303E00526DFE700231C9380239D
:10300000DB001E9A1A431E920026002399461D9B40
:103010009E4264D29F1B02231E9A1A400A921E9A55
:10302000134202D0002E00D000274B46002B07D0C1
:1030300022002B000698079901F035F806900791B9
:10304000002200230898099901F08EF8002848D141
:10305000444B1E9A1340049303971C9B0293069BB8
:10306000079C0093019443460C9A5146584600F041
:1030700087F8002E00D187E71E9B9B063DD545258E
:10308000441C4346020051462800D8474A46D317FD
:10309000D2185A4005230593013E0496002303935A
:1030A0000A3302934B46DB0F019300924346220002
:1030B00051465846FFF78AFD0A9B002B00D163E773
:1030C00002005F460C9E1D9D54E01C9B002B9ED071
:1030D0000D9B002B9BD01C9B013B1C9397E700276B
:1030E00099E7069C079D220029008020000684465F
:1030F00061440B0006920793AAE76525C0E7C04626
:10310000FFFFEF7FFFFFEFFF01FCFFFF0000F03F3D
:10311000FB799F501344D33FB3C8608B288AC63FC6
:103120000000F83F61436F63A787D23F71A379091D
:103130004F930A400000E03F1655B5BBB16B02400B
:10314000EF39FAFE422EE63FFF03000000002C405C
:1031500000002440000018402D431CEBE2361A3FCB
:1031600080842E41FFF7FFFF541C43465146202028
:10317000B8472200931BAB42F6D3100004E7C046C9
:10318000F0B5DE4657464E464546E0B595B006904A
:10319000079193469946209F1E9A1F9B1000190085
:1031A00000F0FDFF002831D101225242BF4B1E9892
:1031B0001F9900F0D9FF002837D101225242BC4BA1
:1031C0001E981F9900F0E6FF00283DD10022B94B60
:1031D0001E981F9900F0DEFF002850D10022B64B48
:1031E0001E981F9900F0C0FF002848D1002200233C
:1031F0001E981F9900F0B8FF002850D10023984670
:10320000229B5B0500D4B6E0002458E0229B039388
:10321000219B029303230193A84B00934B465A46EC
:1032200007990698FFF7F2FB0EE1229B0393219B7F
:10323000029304230193A24B00934B465A460799ED
:103240000698FFF7E3FBFFE00423229A1A40229935
:103250000B4210D09B4B002A0FD0042222990391DD
:1032600021990291019200934B465A46079906987C
:10327000FFF7CCFBE8E0944BEDE70322EEE7229B5F
:103280000493219B039302971E9B1F9C0093019420
:103290004B465A4607990698FFF768FDD4E01E9AF8
:1032A0001F9B0020002100F0ECFE1E901F910123C7
:1032B0009846A5E70CAB30221A55013F01341F2C6C
:1032C00001D8092FF6D81E981F9900F093FF05002A
:1032D00000F078FF02000B001E981F9900F0D1FE4D
:1032E0007A4BFA009B181A685B680A920B9300F0FD
:1032F000F8FE0890099100F0A1FF060000F05EFFC3
:1033000002000B000898099900F0BBFE0890099193
:1033100000226F4B00F03EFF00282ED00136300017
:1033200000F04CFF02000B000A980B9900F022FFFE
:10333000002801D001350026002F2CD1280000F0F4
:1033400041FF02000B001E981F9900F09AFE060034
:103350000F0000225E4B00F007FF002846D100223C
:103360005B4B3000390000F015FF00283ED1EB0721
:103370003CD501353AE0062746E70022544B089831
:10338000099900F0F1FE0028D6D1002E01D0F307F4
:10339000D2D50136D0E7AA461F2C11D8013F0A2109
:1033A000300000F02BFC651C30310CAB19550A21A4
:1033B000300000F023FC092E0ED906002C00EBE7AC
:1033C00055461F2C0CD87B1E002F09D00CAA30218B
:1033D00011551F000134F4E72B0055461C00F0E79F
:1033E0001F2C03D80CAB2E221A5501341F2C10D8D9
:1033F0000A21280000F0DAFB661C30310CAB1955AD
:103400000A21280000F0D2FB051E01D03400EDE7B0
:1034100034000323229A1340012B1CD01F2C06D802
:103420004346002B32D00CAB2D221A550134229B7F
:103430000393219B029301940CAB00934B465A4695
:1034400007990698FFF7E2FA15B0F0BCBB46B24602
:10345000A946A046F0BD219B002B13D04346002B6C
:1034600002D10C3313420FD0219B013B2193190051
:1034700003E00CAB30221A5501348C42CED21F2C03
:10348000F7D9CBE72199F8E72199F6E7229B5B076B
:1034900004D50CAB2B221A550134C8E7229B1B071D
:1034A000C5D50CAB20221A550134C0E7FFFFEFFF52
:1034B000FFFFEF7F65CDCD4165CDCDC18887001081
:1034C0008C8700107C8700108487001030890010E2
:1034D0000000E03FF0B5DE4657464E464546E0B5B3
:1034E00093B082468B4690461193002900D100E3A9
:1034F00000275446119B1878002800D1FCE22528AB
:1035000009D07D1C43463A005946A047119B013320
:1035100011932F00EEE7013311930025119A1178D2
:103520000B00203BD8B2102803D88300C248C358F0
:103530009F460B00303BDBB2092B2CD92A292FD018
:1035400000230A93119B1A782E2A39D0002399461A
:10355000119A1378683BD9B2122976D88B00B749F3
:10356000CB589F4601231D4301321192D6E7022317
:103570001D4301321192D1E704231D430132119200
:10358000CCE708231D4301321192C7E710231D43E6
:1035900001321192C2E711A8FFF726FA0A90D1E78B
:1035A0001C9B1A1D1C921B68002B04DB0A93119BA9
:1035B00001331193C6E7022215435B420A93F6E7F3
:1035C0008022D20015435A1C11925A781300303BC6
:1035D000DBB2092B04D92A2A07D000239946B7E782
:1035E00011A8FFF701FA8146B2E71C9B1A1D1C9235
:1035F0001B68002B04DB9946119B01331193A7E74D
:103600000023F8E780235B002B43511C1191527873
:103610006C2A01D01D0018E0C0239B001D4301311E
:10362000119112E080232B43511C11915278682A8A
:1036300001D01D0009E0C0231D430131119104E0B8
:1036400080235B001D4301321192119B187867287B
:1036500016D8252826D30300253BDAB2422A21D8E2
:103660009300774AD3589F4680239B001D43013225
:103670001192EAE780235B001D4301321192E4E7D7
:1036800078280FD869280DD30200693AD2B20123F5
:1036900093406C4A13420FD11A0600D503E25B0532
:1036A00000D594E17D1C43463A005946A047119B42
:1036B000013311932F001DE7782809D0622838D0F4
:1036C0006F2838D0582838D010239D430A2600E0B0
:1036D0001026582833D0692803D0642801D00C2242
:1036E00095436A0501D50122954369282AD06428AB
:1036F00028D0AA0500D5A7E0EA0500D5C0E06A06F3
:1037000000D4D2E01C9A111D1C911168FF220A40BE
:1037100005950A9B04934B4603930296002301935D
:10372000009243463A0059462000FFF74FFA07003F
:1037300027E00226CDE70826CBE71026C9E720229E
:103740001543C8E7AA0520D4EA0550D46A0666D511
:103750001C9A111D1C911168FF220A40D0171118E4
:10376000414005950A9B04934B4603930296D20F62
:103770000192009143463A0059462000FFF726FA8D
:103780000700119B01331193B4E61C9A07320721FD
:103790008A43110008311C91116853689C46DB175D
:1037A0000C930D930C9A0D9B100048400E906246AE
:1037B00053400F930E980F990C9A0D9B801A9941C4
:1037C0000E900F9108950A9B07934B46069304961B
:1037D000002305936346DA0F02920090019143465D
:1037E0003A0059462000FFF74FFA0700C9E71C9A34
:1037F000111D1C911268D0171118414005950A9BA4
:1038000004934B4603930296D20F019200914346D4
:103810003A0059462000FFF7D9F90700B1E72A0618
:1038200005D51C9A111D1C910023D25E96E71C9AA7
:10383000111D1C91126891E794870010D887001021
:1038400024880010419000001C9A073207218A4307
:10385000110008311C9108950A9B07934B4606936B
:103860000496002305930293536812680092019313
:1038700043463A0059462000FFF706FA070080E762
:103880001C9A111D1C9105950A9B04934B460393AA
:103890000296002301931368009343463A00594669
:1038A0002000FFF793F907006BE72A0606D51C9A5C
:1038B000111D1C9112681204120C29E71C9A111D8B
:1038C0001C91126824E746281AD01C9B0733072254
:1038D00093431A0008321C9204950A9A03924A46AE
:1038E00002921A685B680092019343463A00594677
:1038F0002000FFF745FC0700119B01331193F9E508
:1039000020231D43E1E7672801D0472802D1802307
:103910001B011D43452801D0472801D120231D4309
:103920001C9B0733072293431A0008321C9204950C
:103930000A9A03924A4602921A685B6800920193BF
:1039400043463A0059462000FFF710FA0700119B42
:1039500001331193CEE502231A002A4092462B42EE
:103960001FD001251C9B1A1D1C927A1C91461878A9
:1039700043463A005946A0475346002B16D1119BA7
:10398000013311934F46B5E5561C43465946202056
:10399000B8472B0032005D1C9C42F5D83C00170054
:1039A000E0E701233A0027000A9CF4E74A46A146D3
:1039B0000A9C06E0571C434659462020C84735005C
:1039C0003A006E1CAC42F5D84C469146D7E71C9B9A
:1039D0001A1D1C921E684B46002B00D1013B310082
:1039E00001E0013113000A78002A02D05A1E002B90
:1039F000F7D1891B10918023DB002A001A409246E0
:103A00001D4203D0494501D94B46109302231A00A9
:103A10002A400B922B4205D03A00574623004C46D1
:103A2000994620E03A00109B5F46B346260006E028
:103A3000541C434639002020B0472B0022005D1C57
:103A40000A999942F4D834005E46BB461095574611
:103A500023004C46994606E01C000136551C43469F
:103A60005946C8472A003078002804D0002FF4D0E7
:103A7000631E002CF0D117004C460B9B002B03D18A
:103A8000119B0133119335E50A9F109B06E0561CEC
:103A9000434659462020A0472B0032005D1C9F4220
:103AA000F5D81700ECE721232B431C9A111D1C911C
:103AB00012680593082304934B4603931023029343
:103AC00000230193009243463A0059462000FFF735
:103AD0007DF80700119B013311930BE57D1C4346D4
:103AE0003A0059462520A047119B013311932F001E
:103AF00000E50B4B9A46FBE4A246474502D34346FA
:103B00005A1E00E03A00434659460020D04738008C
:103B100013B0F0BCBB46B246A946A046F0BDC046B5
:103B2000D929001000B585B0029003910121044805
:103B3000009313004A4202A9FFF7CCFC05B000BD78
:103B4000DB29001001480421014B18471005002013
:103B5000753B001010B5010018231B881422108833
:103B6000984710BD10B5010018231B881622108835
:103B7000984710BDF0B5C64600B507000E000025F9
:103B80000123984600E00135B5420AD2AC003C1949
:103B90002068FFF7DFFF20600028F4D1002398465B
:103BA000F1E7404680BCB846F0BD0000124A936F72
:103BB0009B0815D29066D166002905D0FFE7FFE784
:103BC000FFE7516F106F704704B580210906C217D7
:103BD0005140002800D0C84304F02EF8002104BD55
:103BE000F0B5146E556E576F166FFFF7E3FF14664E
:103BF000556657671667F0BD000000D0114A936FF5
:103C00009B0813D210665166002905D0FFE7FFE735
:103C1000FFE7516F106F704704B5002801D00020F6
:103C2000C04304F009F8002104BDC046F0B5146E8D
:103C3000556E576F166FFFF7E5FF146655665767A9
:103C40001667F0BD000000D094464E4A926F92086D
:103C5000624601D230E0C046F0B54A4EB56F6D08FD
:103C6000FCD3346E756E776F366F00F025F894468E
:103C7000444A14665566576716676246F0BDC046EB
:103C80009446404A926F9208624601D258E0C0467C
:103C9000F0B53C4EB56F6D08FCD3346E756E776F22
:103CA000366F00F04DF89446364A146655665767ED
:103CB00016676246F0BDC046002B24DB11D00029F8
:103CC0003EDA00B5C943404200D1013100F038F876
:103CD000C943404200D10131DB43524200D101339C
:103CE00000BD002AEBD1002801D1002905D0002019
:103CF000C90FC90701D1C043410800B503F094FFC3
:103D00000022002300BD00B500290ADBDB4352423C
:103D100000D1013300F014F8C943404200D1013111
:103D200000BDC943404200D10131DB43524200D1C2
:103D3000013300F005F8DB43524200D1013300BDEE
:103D4000002923D1002B18D1002A0CD0BC460D4FDE
:103D500038667A6600210023FFE7FFE7FFE77A6F06
:103D6000386F67467047002801D00748010000B54A
:103D700003F05AFF0022002300BD02000B000020C8
:103D800000217047000000D0FFFFFFFF002B00D094
:103D9000BFE0130C28D1002AE7D080B4114F396658
:103DA0007A66FFE7FFE730B4040C7B6F396F1B04C2
:103DB00023433B667A66FFE7FFE7FFE7C04684B22E
:103DC0007B6F3D6F1B0423433B667A66FFE7FFE78B
:103DD000C04600232C042D0C7A6F386F00196941FE
:103DE000B0BC7047000000D0F0B594460025140E1A
:103DF00001D112020835140F01D112010435940FBC
:103E000001D192000235D40F01D152000135D40BFB
:103E10000134254F7C66254C3C660E0C93B2FFE7BF
:103E2000FFE7FFE73C6F6643360C7703BE467343FC
:103E3000DF0B5B04C01AB941130C7343DB18C91ABA
:103E4000CE086643360CB64493B273431F0F1B0172
:103E5000C01AB941130C73431F0B1B05C01AB9419B
:103E6000860D8F023E436643360C092D24DB520A31
:103E70007243801A7703460A6643360C16235B1B8F
:103E8000DE40DF40BF1964466643821B704604353E
:103E900006330100D940A840C01900D30131A24225
:103EA00006D20023F0BD0000000000D0FFFFFFFF9E
:103EB000121B0130F3D3F1E709277F1BFE40644654
:103EC000A2B27243801A00D20139220C7243130C41
:103ED0001204821A99410B00704604351337010011
:103EE000F940A840801900D30131002B02D1A24231
:103EF0000AD2F0BD013000D30131121BFAD2013BCE
:103F0000F8D1A24200D2F0BD013000D30131121B22
:103F1000F7E7F0B51C0C00D080E00CB400251C0ABB
:103F200004D11B02160E3343120208351C0B04D1B8
:103F30001B01160F3343120104359C0B04D19B0067
:103F4000960F334392000235DC0B02D192185B418D
:103F500001351C00971864410134464F7C66464C7D
:103F60003C660E0CFFE7FFE7FFE7C0463C6F664389
:103F7000360C7703BE4697B27743C01B00D2013997
:103F8000C01B00D201399FB27743C91BC91B170C54
:103F900077437E04FF0B801BB941CE086643360C85
:103FA0000C2D33DBB644120B1F053A431B0B97B2A3
:103FB0007743C01B00D201399FB27743C91B170C4E
:103FC00077433E043F0C801BB941860D8F023E4370
:103FD000664329277F1BFE400C3D7746AF40BF1943
:103FE00030BCA2B2ABB272437343801A9941220C27
:103FF0007243130C1204801A994102000B0001371E
:10400000001BA941F9D2781E0021F0BD0C277F1BAF
:10401000FE4077467F0BAF40FF19E0E700245D1CB0
:1040200007D0144F7D663966FFE7FFE7FFE7FFE73C
:104030003C6F95B29EB265436643401BB141150C7F
:104040001E0C6543664336042F0C3E432D04401B73
:10405000B141994204D202000B0020000021F0BDC2
:1040600001D19042F7D3801A994101349942F2D399
:10407000F6E70000000000D0FFFFFFFF484041408E
:10408000484018B41B4B5B68FC46019308BD04DF35
:104090005743001018B4174B1B68FC46019308BD2A
:1040A00000DF614300109446134A926F920809D2D0
:1040B000624618B40F4BDB68FC46019308BD0CDF69
:1040C000194600100C4AF0B5146E556E576F166FF6
:1040D0006246FFF7EEFF084A146655665767166793
:1040E000F0BD18B4034B9B68FC46019308BD08DF84
:1040F000BD4400101C150020000000D0FFB550404A
:104100004240504059404B40594000E0FFB5154FE8
:104110004C00640D03D0BC4204D10C0314D8002021
:10412000090D09055C00640D03D0BC4204D11C03D9
:104130000AD800221B0D1B0501264B4009D44B4019
:1041400003D58B4200D18242FFBD9942FCD19042FF
:10415000FFBD0B43DB1803431343F5D0C943491894
:10416000FFBD0000FF07000000B5FFF7CFFF804153
:1041700000BDC04600B5FFF7C9FF01D9002000BD52
:10418000012000BD00B5FFF7B9FF01D9002000BD37
:10419000012000BD00B5FFF7B1FF804100BD012047
:1041A00040054A00121804D85A00121801D80020FD
:1041B0007047012070470020704700000021002850
:1041C00005D17047C1174840401AFAD0C90713B546
:1041D000064B1B6898470CBC441CA2401005120BF0
:1041E0000349091B09051943114310BD1C16002082
:1041F0001F04000010B54C00620D8023D218DB00B4
:10420000D21A5B057E2A10DD9E3A13DACC17090319
:10421000490819435242D140640001341532202A22
:1042200005DAD0400843604310BD002010BD0846A9
:10423000604310BDC80FC018013810BD18B4044B3E
:104240005B6AFC46019308BD24DFC94700100000EB
:104250001C15002070B513231C78012C14D0012CE0
:1042600014DC022C02DC1F4B1F4A93641F48FFF72B
:1042700071FC1F4B186070BD1A491B4A9800815091
:1042800001331F2BF8D9EAE70023FAE71948FFF7B3
:1042900069FC05001848FFF765FC023803789B00AD
:1042A0007F2B19DD10488022290000F0ABFB022C87
:1042B000D7D1124B1A88B5231B029A4209D1104B51
:1042C0001A88104B9A4204D10F4B1A880F4B9A420E
:1042D000C7D00020FDF746FF0D4B0E4A0E48322195
:1042E000FDF7A6FE1D4300101C1500204C330000F6
:1042F0001C160020534400005346000054380000B0
:10430000D8380000494600009C380000594600009B
:1043100080890010248A0010E089001007B56046EB
:10432000002800D100BE01880A0A0230DF2AFAD133
:10433000C9B2820804D3028840880004104300E018
:104340000068024A5050039007BD00001C15002071
:104350000FB403BC0CBCF0B50124E407634000E0DB
:10436000F0B50C0DCF0F661E3605891B640503D30F
:10437000C943404200D30131640D03D0661CF60AE4
:1043800007D0E41B00207F00791C89078912803C3C
:1043900024031D0DDF0F6E1E36059B1B6D0503D319
:1043A000DB43524200D301336D0D03D06E1CF60A7D
:1043B00007D0ED1B00227F007B1C9B079B12803DDA
:1043C0002D032F1B661B58D4A446202E46DA203717
:1043D0001400BC401D00BD40F24033412A43801808
:1043E0005941CB0F05D0C943C0430022644250411C
:1043F000514162464D0D28D10D0D07D100281FD027
:10440000241940414941013A0D0DF9D0640006D309
:10441000013000D30131002C01D140084000013AA5
:104420000BD4941CE40A04D112051144DB0719448F
:10443000F0BDD907204B194300E0D9070020F0BD9B
:104440000029DDD1002CDBD1F0BD0132C6074008C8
:10445000CD0728434908002EE1D0D9E73C2E29DAC0
:10446000203E40371400BC4000D00124F2401443E9
:104470001A00BB401C43D317ACE7AC46202F08DA28
:1044800020360400B4400D00B540F84039412843BF
:10449000A5E73C2F0CDA203F40360400B44000D0A2
:1044A0000124F84004430800B1400C43C117EAE777
:1044B00010001900002494E70000F07FF0B50C0D07
:1044C000661E3605891BE60A6405640D02D0651C6C
:1044D000ED0A04D0002001210905803C2403A446F4
:1044E0001C0D671E3F05DB1BE70A6405640D02D047
:1044F000651CED0A04D0002201231B05803C240327
:104500007740644497B484B296B27443070C7E43F8
:10451000150C6F4380B26843361802D301200004A3
:104520003F183004350C00197D41844688B29AB298
:1045300050430C0C62431F0C7C438EB27E43921995
:1045400002D301263604A4191604170C3618674145
:1045500001BC81B29AB25143040C62431B0C5C4310
:1045600080B25843121802D301200004241810040A
:10457000130C401863412D185E410020474106BCD2
:1045800088B293B258430C0C6343120C544389B263
:1045900051435B1802D301210904641819041A0C51
:1045A000091862416D1856410020474118BCF902B4
:1045B000720D1143F0026A0D1043ED020A0D03D192
:1045C0006D1940414941013B124E9B1B7600B3429D
:1045D0000ED26D0007D30130002671416646354387
:1045E00001D1400840001B05C918E4072144F0BD73
:1045F0000BDA013306D1013004D101314F0D01D066
:104600004908F2E7E1070020F0BD0136310500203E
:10461000EBE70000FF030000F0B51C0D671E3F052F
:10462000DB1BE70A6405640D02D0661CF60A04D0A1
:10463000002201231B05803C2403D0252D060026E3
:10464000F6432E661E096E66CE0FF619B446490073
:104650004F0D02D07E1CF60A03D000200021403FFF
:104660003F033E1BB600B444013F7F05C91B490808
:104670002E6F013676089C02950D25437543ED1388
:104680007543AD1301356D10F603761B0CB4CC02E7
:10469000450D2C43A2B2B3B25A43270C7B43350CD1
:1046A0006F43A4B26C431B1902D3012424043F19A5
:1046B0001C041D0CA4187D4124196D41009A91B26F
:1046C000ACB26143170C7C432B0C5F4392B25A434C
:1046D000A41802D301221204BF182204230C52187A
:1046E0007B41019C6C431B19520ED9010A434401C2
:1046F000A01A81B2B2B2514303145A43360C734329
:1047000087B27743D617D21900277E4136049B190A
:104710001704160C7F185E417316ED18F30100267E
:1047200080337541A90F06D16400690AE8055B0A68
:10473000184309D22FE00422944480337541A90A1A
:10474000A8059B0A184326D3404149412404009AF6
:10475000019B0D005543641B4343E41A95B286B296
:104760007543170C7E43030C5F4392B25A43B6184D
:1047700002D301221204BF183204330C52197B41B8
:1047800052429C41002C02D4002201305141400889
:10479000CA071043490802B06246D7079210084B77
:1047A000D218084B9A4203D212058918C919F0BDD4
:1047B0000020002A01DC3900F0BD01331905F5E7BE
:1047C000FD030000FE070000002200B5203200F0CB
:1047D00004F8080000BD000000220B150AD410B533
:1047E000944600F031F81414013400DA0021CB179C
:1047F000144C20470020002170476244343A0CD406
:104800000C2A07DA04009140904052422032D440F2
:10481000214310BDD843D94310BD203207D40C46E4
:104820009440524220321141D040204310BD080034
:10483000C917203203D452422032104110BD180053
:10484000190010BDFB4700100A0DCC0F531E1B05AD
:10485000C91A520503D3C943404200D30131520D56
:1048600003D0531CDB0A07D0121B00206400611C1C
:1048700089078912803A1203014BD21A704700004F
:10488000FF03000051434343C9188C46110C83B207
:104890004B4310B4040C614392B280B25043624364
:1048A0001C041B0C001910BC59411304120CC01835
:1048B000514161447047000070B513231E782A48A7
:1048C000FFF750F90500012E11D0012E09DDAB1EB6
:1048D0001B789B007F2B40DD24488022290000F0BC
:1048E00091F82348FFF736F9224B186070BD1F4836
:1048F0005422290000F086F81F4B1A881F4B9A4259
:104900001CD1A7239B011A881D4B9A4216D11D4B1F
:104910001A881D4B9A4211D11C4B1A8894239B0173
:104920009A420BD11A4B1A881A4B9A4206D11A4B4B
:104930001A681A4B9A4201D1152307E01848FDF76F
:1049400011FC184C094A99008C5001331F2BF8D9DF
:10495000144B064A1362D361B7E7134B134A14484A
:104960004221FDF765FBC04653460000201600209B
:104970004C3300001C160020EE290000C40F00007C
:10498000C20D0000962B0000C0B50000182B0000DF
:10499000CC2A000010B50000FC2C000051ED87640B
:1049A0007C7D0010B5490010388A0010AC8A0010D8
:1049B0006C8A001007B56046002800D100BE01884F
:1049C0000A0A0230DF2AFAD1C9B2820804D3028867
:1049D00040880004104300E00068024A50500390F1
:1049E00007BD00002016002001480421014B184794
:1049F00020050020753B0010014B1B681847000084
:104A000020050020014B5B681847000020050020AE
:104A100010B50300080011001B68984710BD000086
:104A2000F8B507000D001600437C002B02D00024CF
:104A300000200CE003681100280098472DE03B7C23
:104A400010E03B68154802219847601C0134B442CD
:104A500014DA002CF3DD2B19013B1B780D3B5A4275
:104A60005341DBB22A5D0A2AF0D1002BEED1A042DD
:104A7000E7DA3B68211A28189847E2E7B04203DAE0
:104A80003B68311A28189847002E06DDAD19013D04
:104A90002B780D3B5A4253413B74F8BD2C8B0010D0
:104AA00070B505000368002B16D00C4B1C6805E0A0
:104AB000290004C92000FFF7B3FFE468002C09D0E7
:104AC0002368002BF9D0064B1B68002BF0D0A342C3
:104AD000F3D1EDE700232B6070BDC046DC10002051
:104AE000E010002070B505000C000B68802B05D08D
:104AF00023685A1C2260E418257170BD0800FFF776
:104B0000CFFFF5E710B582B0D0231B0600241C5759
:104B1000074801A903F098F8002806D1019B9C42A0
:104B200003D0034803F0A8F8012002B010BDC0462E
:104B3000B409002010B5024803F06EF810BDC0465D
:104B4000B4090020F0B5CE46474680B583B00600D4
:104B50000D0090461C00FFF7D5FF81466B1C05D069
:104B6000002C08D0194F1A4B1C6807E0300002F0E7
:104B7000A9FF0500F4E7174FF5E7E468002C17D00C
:104B80002368002BF9D0144B1B68002B01D0A342E3
:104B9000F3D12A0031002000B8474346002BECD067
:104BA0006B46D91D0A230B7001222000B847E4E7A9
:104BB0004B46002B07D16B1E9D41E8B203B0C0BC31
:104BC000B946B046F0BDFFF7B5FFF4E7114A001053
:104BD000DC100020214A0010E01000200C4B1A6865
:104BE000130001E01A00DB68002B08D08342F9D1E2
:104BF000002903D1DB68D3600023C360704700291C
:104C0000FCD0002A01D0D060F8E7014B1860F5E72E
:104C1000DC10002010B5064B1C6801E09847E468E2
:104C2000002C03D06368002BF8D1F8E710BDC04614
:104C3000DC10002070B5050002F044FF04000023E2
:104C4000012201002800FFF77DFFFFF7E3FF2000AE
:104C500070BD000070B5A2B004000E00FFF752FF57
:104C600005008422002101A8FFF7C6FE0948330091
:104C7000220001A9FEF756FF040001A8FFF710FF6C
:104C8000FFF7C8FF002D02D1200022B070BDFFF752
:104C900051FFF9E7E54A00100FB400B583B004A94D
:104CA00001C90191FFF7D6FF03B008BC04B0184753
:104CB00010B500F087F800F0CBF910BDF0B583B067
:104CC00005000E0000240FE06B46D91D0D230B706C
:104CD0000020002816D193699B06FCD40B78136042
:104CE00001300131F5E70134B44219DA0D4B1A688D
:104CF0002F5D0D4BD31859424B410C495B005B5E55
:104D0000BB42E1D06B46D91D0F7000200028EAD1CC
:104D100093699B06FCD40B78136001300131F5E7F1
:104D200003B0F0BD401700200080FCBF3C170020FE
:104D3000F0B583B005000E00002004E06B46073399
:104D40001B7823703800B04215DA0E4B1A6893694D
:104D50001024210019401C420DD1471C2C186B4611
:104D6000D81D0029EAD19369DB06FCD413680370CF
:104D700001310130F5E7002801D003B0F0BD033860
:104D8000FBE7C0464017002070B515001C000B4B18
:104D90001860FBF7F3FF002D06DA002C09DA08484B
:104DA0000121FFF71BFF70BD02212800FBF7EEFE7B
:104DB000F3E702212000FBF7E9FEF0E740170020AF
:104DC0003005002010B5064B1B78064B1B78E121FF
:104DD0000123002249020448FFF7D6FF10BDC04658
:104DE0008092001084920010004003407047000041
:104DF000014B00221A7070475A1700204B79FF2B85
:104E00000CD18B79002B0BD1CB79012B0AD1082A3D
:104E10000AD98A78054B1A70092000E000207047F3
:104E20000020FCE70020FAE70020F8E75A170020EE
:104E30000120704770B504000D000348FEF78AFE9C
:104E400003002900200098475542000010B50029B2
:104E500026D1117953791B020B43124909788B42F1
:104E600001D0002010BD5378012B03D0022B10D0AD
:104E70000020F7E79178D3781B021943DB0503D5AF
:104E80004B0A0120984000E000207F231940FFF7E3
:104E9000D1FF642200210020FDF766FD0120E1E73B
:104EA0000120DFE75A1700200123037000487047F4
:104EB000708B001010B50A784B781B0213438A7868
:104EC00012041A43CB781B0613439622D200934256
:104ED00000D010BD00210800FFF7ACFF30B583B053
:104EE00004000D00184801A902F0AEFE002808D108
:104EF000D0231B061B68019A9A4221D0124802F067
:104F0000BBFE002001F018FE002807D103246442F4
:104F10000D4802F081FE200003B030BD002001F0FA
:104F20002DFE002802D103246442F1E72A0021006B
:104F3000002001F02FFE041EEAD103246442E7E7BB
:104F400003246442E7E7C0462417002010B5064852
:104F5000002102F079FE002800D110BD01F084FB91
:104F6000014802F059FEF8E724170020F0B5C646C4
:104F700000B582B080460D002E4801A902F064FE03
:104F8000002808D1D0231B061B68019A9A420FD033
:104F9000284802F071FE002001F0CEFD002847D124
:104FA000254B0020002118605960224802F034FE91
:104FB00002B080BCB846F0BD01F056FB002001F005
:104FC000FDFD002001F0B8FD0028EED0002001F02A
:104FD00077FE00281DD0AC42E7DA2E1B002001F03E
:104FE0006FFE0200864200DC3200002AE4D0434615
:104FF0001919002001F048FE060001F035FB0020E1
:1050000001F0DCFDA419FCF7CFFC0B4B18605960D4
:10501000E1E7FCF7C9FC084B1E685F68074A0023FC
:1050200092197B419942C0D8D5D19042D3D9BCE7DF
:105030000024D0E724170020D80A002020A1070070
:1050400010B51F20FDF720FAFA208000002110BDC6
:1050500070B584B0244B1B7802F078F823491F20E8
:10506000FDF722FA01211F20FDF706FA2048FCF780
:105070009FFDFCF70DFA0600FCF796FC04000D1EE0
:1050800020DBFA229200002312196B41994202D8C8
:1050900004D1904202D901225242D317002B17DBD0
:1050A0000121029100210191124900913000FCF789
:1050B00005FA0400631E9C41E4B200280ED12000D2
:1050C00004B070BD0C4B0D4A0D483F21FCF7B0FFFA
:1050D000094B0A4A0A483F21FCF7AAFF0948012167
:1050E000FFF77CFDEBE7C046889200104D4F0010A3
:1050F0002417002041500010B87C0010A88B00102D
:10510000D47C00104405002000487047408C0010FB
:1051100000487047EC8B001010B50400154B1B784D
:10512000002B0ED0002C11D1134B144A5A800123AE
:1051300001335B001BB2C022920013430E48038070
:1051400010BD0C48112102F0D3FBEBE7052C0ED863
:105150000B4BA400E4580023122BE9D8E15C002992
:10516000E6D00133044A58001152DBB2F4E70020C4
:10517000E6E7C04644170020B410002009040000F0
:10518000548C001002007F201040D209400080188B
:105190004001014BC0187047E410002010B582B0E8
:1051A00001AB074A1A80002406E001AB185DFFF747
:1051B000E9FF0123C3700134012CF6D902B010BD00
:1051C0000080FFFF10B5838B3F333F2293430229BA
:1051D00015D0124C2268C260D31823609C0610D1EF
:1051E0000F4C6240634080246401A3420FD88906BB
:1051F000114380231B060B434268136010BD5B0004
:10520000E7E7084B084A09485421FCF711FF084B0F
:10521000054A06485621FCF70BFFC046E81400205B
:10522000000010506C8C0010808D00109C8C0010C1
:10523000EC8C0010F8B505000E001400FFF7A2FF7B
:105240007F232B40EF0985707A427A414270002219
:10525000C27086838477012F0DD0DA0012498C4604
:1052600062448260826800211160002B09D1436092
:105270000E4BC360F8BDDA000D498C466244826073
:10528000F0E7012F09D0013BDB000A4A9446634452
:1052900043602100FFF796FFECE7013BDB00064A85
:1052A000944663444360F4E78400105000011050BA
:1052B000800010500C0010500800105010B5002352
:1052C00008E00133DA0000210848115084466244A6
:1052D0005160DBB20E2BF4D90548F0229200002178
:1052E000FFF78AFB034B044A1A6010BD0000105000
:1052F00024110020E814002080011050F0B5CE46A3
:10530000474680B583B01D4B9F6D0024012603E006
:10531000B74376000134E4B2002F29D01F2C27D8E0
:105320003E42F6D0164B9E656308994601236340C2
:1053300001221A4090464B465D0045446D01114BD9
:10534000ED18280000F0A8FA0028E1D00D4A4B46DD
:105350005B0043445B01D3189A8A99780123009338
:105360000023002000F006FE280000F005FACFE739
:1053700003B0C0BCB946B046F0BDC04600001150F5
:1053800000301150E410002070B52B4A9823D458F7
:1053900080235B0225001D401C420AD1E30616D47F
:1053A000E30419D4630429D4230433D4A5423ED1A1
:1053B00070BDFFF7F3FE01222049002000F0C0FD80
:1053C0001F4B802292021A6580256D02E6E71023AA
:1053D0001D43FFF793FFE3E780235B011D43164B5B
:1053E00000221A60FFF76AFF01220021002000F06E
:1053F00092FD134B802212031A65D3E78023DB0151
:105400001D4301220421002000F072FD0C4B1022EC
:105410001A65C9E780231B021D43012205210020D4
:1054200000F066FD064B802212011A65BEE72900D6
:1054300061400448FCF796FE000011500000105037
:1054400000301150208D001070B50C001500FFF7D2
:1054500099FE2A00210000F0FBF970BD10B500286C
:1054600004D101210520FDF707F810BD034B044AC4
:10547000B92104484900FCF7DBFDC046348D00101B
:10548000708D00109C8C001010B5002805D10022F2
:1054900000218020FFF7D8FF10BD034B034ABF2136
:1054A00003484900FCF7C4FD348D0010608D0010E6
:1054B0009C8C0010024B80225202DA647047C04676
:1054C0000020115070B5041E25D100F02FF9154DA4
:1054D0000C23AB6714490520FCF7E6FF1348402274
:1054E0000021FFF789FA002240210020FFF7A2FEE9
:1054F000002240218020FFF79DFEFFF7DFFE012301
:105500002B6480239B05EB649023094AEA5020001A
:10551000FFF7D0FF70BD074B074A4E210748FF3108
:10552000FCF786FD0000115089530010E4100020A4
:1055300010D00100348D0010948D00109C8C001050
:105540000B785B0602D14B78052B00D070478A7828
:10555000014B1A60FAE7C0460000115010B50A006E
:1055600000280DD188780C794B7907211940090260
:105570002143D2789207920FFFF75CFE012010BD05
:10558000034B044AD62104484900FCF751FDC046AC
:10559000348D0010508D00109C8C001010B5FFF75A
:1055A0008DFE10BD10B50400080011001A00002C7B
:1055B00003D1FFF749FF012010BD034B034ABC2173
:1055C0000348FF31FCF734FD348D0010408D00108E
:1055D0009C8C001010B508004B0605D1CB09012B9F
:1055E0000AD00222054B9A66FFF7CCFD80221201F9
:1055F000002100F0C7F810BD0122F3E70020115090
:1056000010B508004B0600D110BDFFF7BBFD00230D
:10561000C3700022014900F0B5F8F5E7FFF7FFFF7E
:10562000F8B504000F00438A828B1E1C934200D9F8
:10563000161CB6B29B1B63828022D2003243E378F1
:10564000002B13D08025AD01154301225340E37098
:105650006378002B0CD0638A002B02D18023DB01FE
:105660001D43002F00D02D042800F8BD0025EBE7D6
:10567000E068BB01C018A1693200FFF7C3F9A36954
:105680009B19A36180231B021D43E4E770B504004E
:1056900083681B68002900D01B0C9D05AD0D627846
:1056A000002A11D11B0409D4A38A5B19A382A38BFE
:1056B000AB4201D900236382280070BD0D4B0E4A16
:1056C0000E48D721FCF7B4FC1B040DD5A069E26895
:1056D000890151182A00FFF795F9A38A5B19A38263
:1056E000A3695B19A361E2E7054B034A0348DE2186
:1056F000FCF79EFCA08D0010B48E0010C08D001031
:10570000108E001010B5040083681B680021FFF79D
:10571000BDFF63681B685B0002D5A38B834200D08A
:1057200010BD01212000FFF7B1FFF9E710B580237C
:105730005B040C4A13600C4A13600C4B9A6880237C
:105740005B049343F9D10A4C9C2200212000FFF70F
:1057500053F98022520100210648FFF74DF9092331
:10576000636710BD00E0004000F0004000C0004052
:105770000000115000001050002303744382838204
:105780008361704710B5002902D083681B681940F7
:10579000002A0FD0114352050CD5826813685B05AF
:1057A0000BD40B4B0B401360FFE7FFE7FFE7FFE76E
:1057B000FFE7FFE78368196010BD83787F211940F8
:1057C000DB09044A9B0004489A58FCF7CBFCC0460E
:1057D000FFFBFFFF58050020308E001070B504005D
:1057E00043681E680021FFF71BFF80256D010543FC
:1057F000144B1B6C9B0704D4A378DB0914D1013331
:1058000000E00023628A002A01D0002B0ED00E4B4C
:105810001E4080239B053343626813602A000021E9
:105820002000FFF7AFFF70BD0023EBE70121200050
:10583000FFF7F6FE0543054A3240A023DB0513437C
:10584000EAE7C04600001150FFFFFFAFFFFFFFDF98
:1058500070B504000D001600037C002B09D1668290
:105860000023A38201332374A5612000FFF7B6FF54
:1058700070BD83787F211940DB09054A9B009A5847
:105880000448FFF709FA2000FFF776FFE7E7C04674
:1058900058050020508E001070B50400057C002DC6
:1058A00006D0FFF72FFF638A002B08D1280070BDB8
:1058B00081787F231940044A0448FCF753FC2000F8
:1058C000FFF78CFF0025F1E758050020888E0010B7
:1058D00070B5050000240EE062001219D200184BCA
:1058E0001B689B1802E0230010E000235B6828007F
:1058F00098470134E4B2134B1B78A3420ED3124AEB
:10590000002AF0D0A342E7D8E31ADBB2002BECD197
:105910000E4A5900C918C9005318E7E70C4C532226
:1059200000212000FFF768F8E01C1022FF21FFF79C
:1059300063F8200013302022FF21FFF75DF870BDCF
:10594000E40A002055170020A94E0010FC8F00101B
:105950001C0E002010B5FFF7BBFF01F02DF810BDA5
:1059600070B505000C001600C86801F02FF8E36858
:10597000320000212800984770BD0000F0B5DE46D7
:1059800057464E464546E0B583B081460139C8B218
:10599000FFF7BEFB002803D043789846022B0CD0BB
:1059A00056495748574AFFF777F9002003B0F0BC33
:1059B000BB46B246A946A046F0BDC5796C1101228E
:1059C000514B1440240119781026B143214319701A
:1059D000AD112A405201C9B22024A1430A431A70D2
:1059E000070009378278C3781B02134382469A4422
:1059F00063E0FB789B463B78FF1865E03F494048F1
:105A0000424AFFF749F90020D0E763001B19DB0089
:105A10003F4A1568ED1802E0230017E00025AB6847
:105A200032003900484698470190082801D986423B
:105A300014D20134E4B2374B1B78A34239D3364A2F
:105A4000002AE9D0A342E0D8E31ADBB2002BE5D16B
:105A5000324D5A00D318DB00ED18E0E75B46012B0E
:105A600010D0002293451AD9BB789B18DBB2264987
:105A7000C918C978FF290BD12349CB18DC70013232
:105A8000D2B2EFE7AA68264B9A42EAD1C346E8E7CA
:105A90001A491B48234AFFF7FFF8002086E71A48F7
:105AA00013302300019D2A00390001F0BDFBAC46F4
:105AB0006744184B1B78A3420ED3574514D27B780A
:105AC0000B2B96D001239B467B78042B96D1534613
:105AD000DE1BB6B20024AEE7F32208490848920064
